{
  "contractName": "Election",
  "abi": [
    {
      "inputs": [
        {
          "internalType": "uint256",
          "name": "",
          "type": "uint256"
        }
      ],
      "name": "candidates",
      "outputs": [
        {
          "internalType": "string",
          "name": "name",
          "type": "string"
        },
        {
          "internalType": "uint256",
          "name": "age",
          "type": "uint256"
        },
        {
          "internalType": "uint256",
          "name": "voteCount",
          "type": "uint256"
        }
      ],
      "stateMutability": "view",
      "type": "function",
      "constant": true
    },
    {
      "inputs": [],
      "name": "electionName",
      "outputs": [
        {
          "internalType": "string",
          "name": "",
          "type": "string"
        }
      ],
      "stateMutability": "view",
      "type": "function",
      "constant": true
    },
    {
      "inputs": [],
      "name": "owner",
      "outputs": [
        {
          "internalType": "address",
          "name": "",
          "type": "address"
        }
      ],
      "stateMutability": "view",
      "type": "function",
      "constant": true
    },
    {
      "inputs": [],
      "name": "totalVotes",
      "outputs": [
        {
          "internalType": "uint256",
          "name": "",
          "type": "uint256"
        }
      ],
      "stateMutability": "view",
      "type": "function",
      "constant": true
    },
    {
      "inputs": [
        {
          "internalType": "address",
          "name": "",
          "type": "address"
        }
      ],
      "name": "voters",
      "outputs": [
        {
          "internalType": "string",
          "name": "name",
          "type": "string"
        },
        {
          "internalType": "uint256",
          "name": "age",
          "type": "uint256"
        },
        {
          "internalType": "uint256",
          "name": "vote",
          "type": "uint256"
        },
        {
          "internalType": "bool",
          "name": "voted",
          "type": "bool"
        }
      ],
      "stateMutability": "view",
      "type": "function",
      "constant": true
    },
    {
      "inputs": [
        {
          "internalType": "string",
          "name": "_electionName",
          "type": "string"
        }
      ],
      "name": "startElection",
      "outputs": [],
      "stateMutability": "nonpayable",
      "type": "function"
    },
    {
      "inputs": [
        {
          "internalType": "string",
          "name": "_name",
          "type": "string"
        },
        {
          "internalType": "uint256",
          "name": "_age",
          "type": "uint256"
        }
      ],
      "name": "addCandidate",
      "outputs": [],
      "stateMutability": "nonpayable",
      "type": "function"
    },
    {
      "inputs": [
        {
          "internalType": "uint256",
          "name": "_voteIndex",
          "type": "uint256"
        },
        {
          "internalType": "uint256",
          "name": "_age",
          "type": "uint256"
        },
        {
          "internalType": "string",
          "name": "_name",
          "type": "string"
        }
      ],
      "name": "vote",
      "outputs": [],
      "stateMutability": "nonpayable",
      "type": "function"
    },
    {
      "inputs": [],
      "name": "selectWinner",
      "outputs": [
        {
          "internalType": "uint256",
          "name": "selectWinner_",
          "type": "uint256"
        }
      ],
      "stateMutability": "view",
      "type": "function",
      "constant": true
    },
    {
      "inputs": [],
      "name": "winnerName",
      "outputs": [
        {
          "internalType": "string",
          "name": "winnerName_",
          "type": "string"
        }
      ],
      "stateMutability": "view",
      "type": "function",
      "constant": true
    }
  ],
  "bytecode": "0x608060405234801561001057600080fd5b506111ea806100206000396000f3fe608060405234801561001057600080fd5b506004361061009e5760003560e01c8063a1bbfc0511610066578063a1bbfc051461014d578063a3ec138d14610169578063e23cec7b1461019c578063e2ba53f0146101b8578063f544bed8146101d65761009e565b80630d15fd77146100a357806333a99e04146100c15780633477ee2e146100df57806385e8e7a7146101115780638da5cb5b1461012f575b600080fd5b6100ab6101f2565b6040516100b89190610a06565b60405180910390f35b6100c96101f8565b6040516100d69190610a06565b60405180910390f35b6100f960048036038101906100f49190610a61565b610280565b60405161010893929190610b27565b60405180910390f35b610119610342565b6040516101269190610b65565b60405180910390f35b6101376103d0565b6040516101449190610bc8565b60405180910390f35b61016760048036038101906101629190610d18565b6103f4565b005b610183600480360381019061017e9190610db3565b610663565b6040516101939493929190610dfb565b60405180910390f35b6101b660048036038101906101b19190610e47565b610728565b005b6101c0610834565b6040516101cd9190610b65565b60405180910390f35b6101f060048036038101906101eb9190610ea3565b6108f0565b005b60045481565b6000806000905060005b60038054905081101561027b57816003828154811061022457610223610eec565b5b906000526020600020906003020160020154111561026857600381815481106102505761024f610eec565b5b90600052602060002090600302016002015491508092505b808061027390610f4a565b915050610202565b505090565b6003818154811061029057600080fd5b90600052602060002090600302016000915090508060000180546102b390610fc2565b80601f01602080910402602001604051908101604052809291908181526020018280546102df90610fc2565b801561032c5780601f106103015761010080835404028352916020019161032c565b820191906000526020600020905b81548152906001019060200180831161030f57829003601f168201915b5050505050908060010154908060020154905083565b6001805461034f90610fc2565b80601f016020809104026020016040519081016040528092919081815260200182805461037b90610fc2565b80156103c85780601f1061039d576101008083540402835291602001916103c8565b820191906000526020600020905b8154815290600101906020018083116103ab57829003601f168201915b505050505081565b60008054906101000a900473ffffffffffffffffffffffffffffffffffffffff1681565b60128211610437576040517f08c379a000000000000000000000000000000000000000000000000000000000815260040161042e90611040565b60405180910390fd5b600260003373ffffffffffffffffffffffffffffffffffffffff1673ffffffffffffffffffffffffffffffffffffffff16815260200190815260200160002060030160009054906101000a900460ff16156104c7576040517f08c379a00000000000000000000000000000000000000000000000000000000081526004016104be906110ac565b60405180910390fd5b81600260003373ffffffffffffffffffffffffffffffffffffffff1673ffffffffffffffffffffffffffffffffffffffff1681526020019081526020016000206001018190555080600260003373ffffffffffffffffffffffffffffffffffffffff1673ffffffffffffffffffffffffffffffffffffffff168152602001908152602001600020600001908051906020019061056492919061094a565b5082600260003373ffffffffffffffffffffffffffffffffffffffff1673ffffffffffffffffffffffffffffffffffffffff168152602001908152602001600020600201819055506001600260003373ffffffffffffffffffffffffffffffffffffffff1673ffffffffffffffffffffffffffffffffffffffff16815260200190815260200160002060030160006101000a81548160ff02191690831515021790555060016003848154811061061d5761061c610eec565b5b9060005260206000209060030201600201600082825461063d91906110cc565b9250508190555060016004600082825461065791906110cc565b92505081905550505050565b600260205280600052604060002060009150905080600001805461068690610fc2565b80601f01602080910402602001604051908101604052809291908181526020018280546106b290610fc2565b80156106ff5780601f106106d4576101008083540402835291602001916106ff565b820191906000526020600020905b8154815290600101906020018083116106e257829003601f168201915b5050505050908060010154908060020154908060030160009054906101000a900460ff16905084565b60008054906101000a900473ffffffffffffffffffffffffffffffffffffffff1673ffffffffffffffffffffffffffffffffffffffff163373ffffffffffffffffffffffffffffffffffffffff16146107b6576040517f08c379a00000000000000000000000000000000000000000000000000000000081526004016107ad90611194565b60405180910390fd5b6003604051806060016040528084815260200183815260200160008152509080600181540180825580915050600190039060005260206000209060030201600090919091909150600082015181600001908051906020019061081992919061094a565b50602082015181600101556040820151816002015550505050565b606060036108406101f8565b8154811061085157610850610eec565b5b9060005260206000209060030201600001805461086d90610fc2565b80601f016020809104026020016040519081016040528092919081815260200182805461089990610fc2565b80156108e65780601f106108bb576101008083540402835291602001916108e6565b820191906000526020600020905b8154815290600101906020018083116108c957829003601f168201915b5050505050905090565b336000806101000a81548173ffffffffffffffffffffffffffffffffffffffff021916908373ffffffffffffffffffffffffffffffffffffffff160217905550806001908051906020019061094692919061094a565b5050565b82805461095690610fc2565b90600052602060002090601f01602090048101928261097857600085556109bf565b82601f1061099157805160ff19168380011785556109bf565b828001600101855582156109bf579182015b828111156109be5782518255916020019190600101906109a3565b5b5090506109cc91906109d0565b5090565b5b808211156109e95760008160009055506001016109d1565b5090565b6000819050919050565b610a00816109ed565b82525050565b6000602082019050610a1b60008301846109f7565b92915050565b6000604051905090565b600080fd5b600080fd5b610a3e816109ed565b8114610a4957600080fd5b50565b600081359050610a5b81610a35565b92915050565b600060208284031215610a7757610a76610a2b565b5b6000610a8584828501610a4c565b91505092915050565b600081519050919050565b600082825260208201905092915050565b60005b83811015610ac8578082015181840152602081019050610aad565b83811115610ad7576000848401525b50505050565b6000601f19601f8301169050919050565b6000610af982610a8e565b610b038185610a99565b9350610b13818560208601610aaa565b610b1c81610add565b840191505092915050565b60006060820190508181036000830152610b418186610aee565b9050610b5060208301856109f7565b610b5d60408301846109f7565b949350505050565b60006020820190508181036000830152610b7f8184610aee565b905092915050565b600073ffffffffffffffffffffffffffffffffffffffff82169050919050565b6000610bb282610b87565b9050919050565b610bc281610ba7565b82525050565b6000602082019050610bdd6000830184610bb9565b92915050565b600080fd5b600080fd5b7f4e487b7100000000000000000000000000000000000000000000000000000000600052604160045260246000fd5b610c2582610add565b810181811067ffffffffffffffff82111715610c4457610c43610bed565b5b80604052505050565b6000610c57610a21565b9050610c638282610c1c565b919050565b600067ffffffffffffffff821115610c8357610c82610bed565b5b610c8c82610add565b9050602081019050919050565b82818337600083830152505050565b6000610cbb610cb684610c68565b610c4d565b905082815260208101848484011115610cd757610cd6610be8565b5b610ce2848285610c99565b509392505050565b600082601f830112610cff57610cfe610be3565b5b8135610d0f848260208601610ca8565b91505092915050565b600080600060608486031215610d3157610d30610a2b565b5b6000610d3f86828701610a4c565b9350506020610d5086828701610a4c565b925050604084013567ffffffffffffffff811115610d7157610d70610a30565b5b610d7d86828701610cea565b9150509250925092565b610d9081610ba7565b8114610d9b57600080fd5b50565b600081359050610dad81610d87565b92915050565b600060208284031215610dc957610dc8610a2b565b5b6000610dd784828501610d9e565b91505092915050565b60008115159050919050565b610df581610de0565b82525050565b60006080820190508181036000830152610e158187610aee565b9050610e2460208301866109f7565b610e3160408301856109f7565b610e3e6060830184610dec565b95945050505050565b60008060408385031215610e5e57610e5d610a2b565b5b600083013567ffffffffffffffff811115610e7c57610e7b610a30565b5b610e8885828601610cea565b9250506020610e9985828601610a4c565b9150509250929050565b600060208284031215610eb957610eb8610a2b565b5b600082013567ffffffffffffffff811115610ed757610ed6610a30565b5b610ee384828501610cea565b91505092915050565b7f4e487b7100000000000000000000000000000000000000000000000000000000600052603260045260246000fd5b7f4e487b7100000000000000000000000000000000000000000000000000000000600052601160045260246000fd5b6000610f55826109ed565b91507fffffffffffffffffffffffffffffffffffffffffffffffffffffffffffffffff821415610f8857610f87610f1b565b5b600182019050919050565b7f4e487b7100000000000000000000000000000000000000000000000000000000600052602260045260246000fd5b60006002820490506001821680610fda57607f821691505b60208210811415610fee57610fed610f93565b5b50919050565b7f596f7520617265206e6f7420656c696769626c6520666f7220766f7465202100600082015250565b600061102a601f83610a99565b915061103582610ff4565b602082019050919050565b600060208201905081810360008301526110598161101d565b9050919050565b7f596f752061726520616c7265647920766f746564202100000000000000000000600082015250565b6000611096601683610a99565b91506110a182611060565b602082019050919050565b600060208201905081810360008301526110c581611089565b9050919050565b60006110d7826109ed565b91506110e2836109ed565b9250827fffffffffffffffffffffffffffffffffffffffffffffffffffffffffffffffff0382111561111757611116610f1b565b5b828201905092915050565b7f596f7520646f6e7420686176652072696768747320746f20706572666f726d2060008201527f74686973206f7065726174696f6e202100000000000000000000000000000000602082015250565b600061117e603083610a99565b915061118982611122565b604082019050919050565b600060208201905081810360008301526111ad81611171565b905091905056fea2646970667358221220a091b4c5c226671b45fb7c113290007b2cb47500690473002d0a1fcf2d740eb264736f6c63430008090033",
  "immutableReferences": {},
  "source": "// SPDX-License-Identifier: GPL-3.0\n\npragma solidity >=0.7.0 <0.9.0;\n\nstruct Candidate{\n   string name;\n   uint age;\n   uint voteCount;\n}\n\nstruct Voter{\n    string name;\n    uint age;\n    uint vote;\n    bool voted;\n}\n\ncontract Election{\n\n    address public owner;\n    string public electionName;\n    mapping(address => Voter) public voters;\n    Candidate[] public candidates;\n    uint public totalVotes;\n\n    modifier ownerOnly{\n        require(msg.sender == owner,\"You dont have rights to perform this operation !\");\n        _;\n    }\n\n\n    function startElection(string memory _electionName) public {\n        owner = msg.sender;\n        electionName=_electionName;\n    }\n\n    function addCandidate(string memory _name,uint _age) ownerOnly public {\n         candidates.push(Candidate(_name,_age,0));\n    }\n\n    function vote(uint _voteIndex,uint _age,string memory _name) public {\n        require(_age > 18,\"You are not eligible for vote !\");\n        require(!voters[msg.sender].voted,\"You are alredy voted !\");\n\n        voters[msg.sender].age = _age;\n        voters[msg.sender].name = _name;\n        voters[msg.sender].vote = _voteIndex;\n        voters[msg.sender].voted = true;\n        candidates[_voteIndex].voteCount += 1; \n        totalVotes +=1;\n    }\n\n\n    function selectWinner() public view returns (uint selectWinner_){\n        uint winningVoteCount = 0;\n        for (uint p = 0; p < candidates.length; p++) {\n            if (candidates[p].voteCount > winningVoteCount) {\n                winningVoteCount = candidates[p].voteCount;\n                selectWinner_ = p;\n            }\n        }\n    }\n\n    function winnerName() public view returns(string memory winnerName_){\n        winnerName_ = candidates[selectWinner()].name;\n    }\n\n}\n\n",
  "sourcePath": "/home/spandan/Desktop/web3.0/election dap/contracts/Election.sol",
  "compiler": {
    "name": "solc",
    "version": "0.8.9+commit.e5eed63a.Emscripten.clang"
  },
  "schemaVersion": "3.4.3",
  "updatedAt": "2021-12-29T17:55:35.367Z",
  "networkType": "ethereum",
  "devdoc": {
    "kind": "dev",
    "methods": {},
    "version": 1
  },
  "userdoc": {
    "kind": "user",
    "methods": {},
    "version": 1
  }
}