{
  "contractName": "Election",
  "abi": [
    {
      "inputs": [
        {
          "internalType": "uint256",
          "name": "",
          "type": "uint256"
        }
      ],
      "name": "candidates",
      "outputs": [
        {
          "internalType": "string",
          "name": "name",
          "type": "string"
        },
        {
          "internalType": "uint256",
          "name": "age",
          "type": "uint256"
        },
        {
          "internalType": "uint256",
          "name": "voteCount",
          "type": "uint256"
        }
      ],
      "stateMutability": "view",
      "type": "function",
      "constant": true
    },
    {
      "inputs": [],
      "name": "electionName",
      "outputs": [
        {
          "internalType": "string",
          "name": "",
          "type": "string"
        }
      ],
      "stateMutability": "view",
      "type": "function",
      "constant": true
    },
    {
      "inputs": [],
      "name": "owner",
      "outputs": [
        {
          "internalType": "address",
          "name": "",
          "type": "address"
        }
      ],
      "stateMutability": "view",
      "type": "function",
      "constant": true
    },
    {
      "inputs": [],
      "name": "totalVotes",
      "outputs": [
        {
          "internalType": "uint256",
          "name": "",
          "type": "uint256"
        }
      ],
      "stateMutability": "view",
      "type": "function",
      "constant": true
    },
    {
      "inputs": [
        {
          "internalType": "address",
          "name": "",
          "type": "address"
        }
      ],
      "name": "voters",
      "outputs": [
        {
          "internalType": "string",
          "name": "name",
          "type": "string"
        },
        {
          "internalType": "uint256",
          "name": "age",
          "type": "uint256"
        },
        {
          "internalType": "uint256",
          "name": "vote",
          "type": "uint256"
        },
        {
          "internalType": "bool",
          "name": "voted",
          "type": "bool"
        }
      ],
      "stateMutability": "view",
      "type": "function",
      "constant": true
    },
    {
      "inputs": [
        {
          "internalType": "string",
          "name": "_electionName",
          "type": "string"
        }
      ],
      "name": "startElection",
      "outputs": [],
      "stateMutability": "nonpayable",
      "type": "function"
    },
    {
      "inputs": [
        {
          "internalType": "string",
          "name": "_name",
          "type": "string"
        },
        {
          "internalType": "uint256",
          "name": "_age",
          "type": "uint256"
        }
      ],
      "name": "addCandidate",
      "outputs": [],
      "stateMutability": "nonpayable",
      "type": "function"
    },
    {
      "inputs": [],
      "name": "getAllCandidate",
      "outputs": [
        {
          "components": [
            {
              "internalType": "string",
              "name": "name",
              "type": "string"
            },
            {
              "internalType": "uint256",
              "name": "age",
              "type": "uint256"
            },
            {
              "internalType": "uint256",
              "name": "voteCount",
              "type": "uint256"
            }
          ],
          "internalType": "struct Candidate[]",
          "name": "",
          "type": "tuple[]"
        }
      ],
      "stateMutability": "nonpayable",
      "type": "function"
    },
    {
      "inputs": [
        {
          "internalType": "uint256",
          "name": "_voteIndex",
          "type": "uint256"
        },
        {
          "internalType": "uint256",
          "name": "_age",
          "type": "uint256"
        },
        {
          "internalType": "string",
          "name": "_name",
          "type": "string"
        }
      ],
      "name": "vote",
      "outputs": [],
      "stateMutability": "nonpayable",
      "type": "function"
    },
    {
      "inputs": [],
      "name": "selectWinner",
      "outputs": [
        {
          "internalType": "uint256",
          "name": "selectWinner_",
          "type": "uint256"
        }
      ],
      "stateMutability": "view",
      "type": "function",
      "constant": true
    },
    {
      "inputs": [],
      "name": "winnerName",
      "outputs": [
        {
          "internalType": "string",
          "name": "winnerName_",
          "type": "string"
        }
      ],
      "stateMutability": "view",
      "type": "function",
      "constant": true
    }
  ],
  "bytecode": "0x608060405234801561001057600080fd5b506114a5806100206000396000f3fe608060405234801561001057600080fd5b50600436106100a95760003560e01c8063a1bbfc0511610071578063a1bbfc0514610158578063a3ec138d14610174578063e23cec7b146101a7578063e2ba53f0146101c3578063efd5297c146101e1578063f544bed8146101ff576100a9565b80630d15fd77146100ae57806333a99e04146100cc5780633477ee2e146100ea57806385e8e7a71461011c5780638da5cb5b1461013a575b600080fd5b6100b661021b565b6040516100c39190610b34565b60405180910390f35b6100d4610221565b6040516100e19190610b34565b60405180910390f35b61010460048036038101906100ff9190610b8f565b6102a9565b60405161011393929190610c55565b60405180910390f35b61012461036b565b6040516101319190610c93565b60405180910390f35b6101426103f9565b60405161014f9190610cf6565b60405180910390f35b610172600480360381019061016d9190610e46565b61041d565b005b61018e60048036038101906101899190610ee1565b61068c565b60405161019e9493929190610f29565b60405180910390f35b6101c160048036038101906101bc9190610f75565b610751565b005b6101cb61085d565b6040516101d89190610c93565b60405180910390f35b6101e9610919565b6040516101f6919061113c565b60405180910390f35b6102196004803603810190610214919061115e565b610a1e565b005b60045481565b6000806000905060005b6003805490508110156102a457816003828154811061024d5761024c6111a7565b5b90600052602060002090600302016002015411156102915760038181548110610279576102786111a7565b5b90600052602060002090600302016002015491508092505b808061029c90611205565b91505061022b565b505090565b600381815481106102b957600080fd5b90600052602060002090600302016000915090508060000180546102dc9061127d565b80601f01602080910402602001604051908101604052809291908181526020018280546103089061127d565b80156103555780601f1061032a57610100808354040283529160200191610355565b820191906000526020600020905b81548152906001019060200180831161033857829003601f168201915b5050505050908060010154908060020154905083565b600180546103789061127d565b80601f01602080910402602001604051908101604052809291908181526020018280546103a49061127d565b80156103f15780601f106103c6576101008083540402835291602001916103f1565b820191906000526020600020905b8154815290600101906020018083116103d457829003601f168201915b505050505081565b60008054906101000a900473ffffffffffffffffffffffffffffffffffffffff1681565b60128211610460576040517f08c379a0000000000000000000000000000000000000000000000000000000008152600401610457906112fb565b60405180910390fd5b600260003373ffffffffffffffffffffffffffffffffffffffff1673ffffffffffffffffffffffffffffffffffffffff16815260200190815260200160002060030160009054906101000a900460ff16156104f0576040517f08c379a00000000000000000000000000000000000000000000000000000000081526004016104e790611367565b60405180910390fd5b81600260003373ffffffffffffffffffffffffffffffffffffffff1673ffffffffffffffffffffffffffffffffffffffff1681526020019081526020016000206001018190555080600260003373ffffffffffffffffffffffffffffffffffffffff1673ffffffffffffffffffffffffffffffffffffffff168152602001908152602001600020600001908051906020019061058d929190610a78565b5082600260003373ffffffffffffffffffffffffffffffffffffffff1673ffffffffffffffffffffffffffffffffffffffff168152602001908152602001600020600201819055506001600260003373ffffffffffffffffffffffffffffffffffffffff1673ffffffffffffffffffffffffffffffffffffffff16815260200190815260200160002060030160006101000a81548160ff021916908315150217905550600160038481548110610646576106456111a7565b5b906000526020600020906003020160020160008282546106669190611387565b925050819055506001600460008282546106809190611387565b92505081905550505050565b60026020528060005260406000206000915090508060000180546106af9061127d565b80601f01602080910402602001604051908101604052809291908181526020018280546106db9061127d565b80156107285780601f106106fd57610100808354040283529160200191610728565b820191906000526020600020905b81548152906001019060200180831161070b57829003601f168201915b5050505050908060010154908060020154908060030160009054906101000a900460ff16905084565b60008054906101000a900473ffffffffffffffffffffffffffffffffffffffff1673ffffffffffffffffffffffffffffffffffffffff163373ffffffffffffffffffffffffffffffffffffffff16146107df576040517f08c379a00000000000000000000000000000000000000000000000000000000081526004016107d69061144f565b60405180910390fd5b60036040518060600160405280848152602001838152602001600081525090806001815401808255809150506001900390600052602060002090600302016000909190919091506000820151816000019080519060200190610842929190610a78565b50602082015181600101556040820151816002015550505050565b60606003610869610221565b8154811061087a576108796111a7565b5b906000526020600020906003020160000180546108969061127d565b80601f01602080910402602001604051908101604052809291908181526020018280546108c29061127d565b801561090f5780601f106108e45761010080835404028352916020019161090f565b820191906000526020600020905b8154815290600101906020018083116108f257829003601f168201915b5050505050905090565b60606003805480602002602001604051908101604052809291908181526020016000905b82821015610a1557838290600052602060002090600302016040518060600160405290816000820180546109709061127d565b80601f016020809104026020016040519081016040528092919081815260200182805461099c9061127d565b80156109e95780601f106109be576101008083540402835291602001916109e9565b820191906000526020600020905b8154815290600101906020018083116109cc57829003601f168201915b50505050508152602001600182015481526020016002820154815250508152602001906001019061093d565b50505050905090565b336000806101000a81548173ffffffffffffffffffffffffffffffffffffffff021916908373ffffffffffffffffffffffffffffffffffffffff1602179055508060019080519060200190610a74929190610a78565b5050565b828054610a849061127d565b90600052602060002090601f016020900481019282610aa65760008555610aed565b82601f10610abf57805160ff1916838001178555610aed565b82800160010185558215610aed579182015b82811115610aec578251825591602001919060010190610ad1565b5b509050610afa9190610afe565b5090565b5b80821115610b17576000816000905550600101610aff565b5090565b6000819050919050565b610b2e81610b1b565b82525050565b6000602082019050610b496000830184610b25565b92915050565b6000604051905090565b600080fd5b600080fd5b610b6c81610b1b565b8114610b7757600080fd5b50565b600081359050610b8981610b63565b92915050565b600060208284031215610ba557610ba4610b59565b5b6000610bb384828501610b7a565b91505092915050565b600081519050919050565b600082825260208201905092915050565b60005b83811015610bf6578082015181840152602081019050610bdb565b83811115610c05576000848401525b50505050565b6000601f19601f8301169050919050565b6000610c2782610bbc565b610c318185610bc7565b9350610c41818560208601610bd8565b610c4a81610c0b565b840191505092915050565b60006060820190508181036000830152610c6f8186610c1c565b9050610c7e6020830185610b25565b610c8b6040830184610b25565b949350505050565b60006020820190508181036000830152610cad8184610c1c565b905092915050565b600073ffffffffffffffffffffffffffffffffffffffff82169050919050565b6000610ce082610cb5565b9050919050565b610cf081610cd5565b82525050565b6000602082019050610d0b6000830184610ce7565b92915050565b600080fd5b600080fd5b7f4e487b7100000000000000000000000000000000000000000000000000000000600052604160045260246000fd5b610d5382610c0b565b810181811067ffffffffffffffff82111715610d7257610d71610d1b565b5b80604052505050565b6000610d85610b4f565b9050610d918282610d4a565b919050565b600067ffffffffffffffff821115610db157610db0610d1b565b5b610dba82610c0b565b9050602081019050919050565b82818337600083830152505050565b6000610de9610de484610d96565b610d7b565b905082815260208101848484011115610e0557610e04610d16565b5b610e10848285610dc7565b509392505050565b600082601f830112610e2d57610e2c610d11565b5b8135610e3d848260208601610dd6565b91505092915050565b600080600060608486031215610e5f57610e5e610b59565b5b6000610e6d86828701610b7a565b9350506020610e7e86828701610b7a565b925050604084013567ffffffffffffffff811115610e9f57610e9e610b5e565b5b610eab86828701610e18565b9150509250925092565b610ebe81610cd5565b8114610ec957600080fd5b50565b600081359050610edb81610eb5565b92915050565b600060208284031215610ef757610ef6610b59565b5b6000610f0584828501610ecc565b91505092915050565b60008115159050919050565b610f2381610f0e565b82525050565b60006080820190508181036000830152610f438187610c1c565b9050610f526020830186610b25565b610f5f6040830185610b25565b610f6c6060830184610f1a565b95945050505050565b60008060408385031215610f8c57610f8b610b59565b5b600083013567ffffffffffffffff811115610faa57610fa9610b5e565b5b610fb685828601610e18565b9250506020610fc785828601610b7a565b9150509250929050565b600081519050919050565b600082825260208201905092915050565b6000819050602082019050919050565b600082825260208201905092915050565b600061101982610bbc565b6110238185610ffd565b9350611033818560208601610bd8565b61103c81610c0b565b840191505092915050565b61105081610b1b565b82525050565b60006060830160008301518482036000860152611073828261100e565b91505060208301516110886020860182611047565b50604083015161109b6040860182611047565b508091505092915050565b60006110b28383611056565b905092915050565b6000602082019050919050565b60006110d282610fd1565b6110dc8185610fdc565b9350836020820285016110ee85610fed565b8060005b8581101561112a578484038952815161110b85826110a6565b9450611116836110ba565b925060208a019950506001810190506110f2565b50829750879550505050505092915050565b6000602082019050818103600083015261115681846110c7565b905092915050565b60006020828403121561117457611173610b59565b5b600082013567ffffffffffffffff81111561119257611191610b5e565b5b61119e84828501610e18565b91505092915050565b7f4e487b7100000000000000000000000000000000000000000000000000000000600052603260045260246000fd5b7f4e487b7100000000000000000000000000000000000000000000000000000000600052601160045260246000fd5b600061121082610b1b565b91507fffffffffffffffffffffffffffffffffffffffffffffffffffffffffffffffff821415611243576112426111d6565b5b600182019050919050565b7f4e487b7100000000000000000000000000000000000000000000000000000000600052602260045260246000fd5b6000600282049050600182168061129557607f821691505b602082108114156112a9576112a861124e565b5b50919050565b7f596f7520617265206e6f7420656c696769626c6520666f7220766f7465202100600082015250565b60006112e5601f83610bc7565b91506112f0826112af565b602082019050919050565b60006020820190508181036000830152611314816112d8565b9050919050565b7f596f752061726520616c7265647920766f746564202100000000000000000000600082015250565b6000611351601683610bc7565b915061135c8261131b565b602082019050919050565b6000602082019050818103600083015261138081611344565b9050919050565b600061139282610b1b565b915061139d83610b1b565b9250827fffffffffffffffffffffffffffffffffffffffffffffffffffffffffffffffff038211156113d2576113d16111d6565b5b828201905092915050565b7f596f7520646f6e7420686176652072696768747320746f20706572666f726d2060008201527f74686973206f7065726174696f6e202100000000000000000000000000000000602082015250565b6000611439603083610bc7565b9150611444826113dd565b604082019050919050565b600060208201905081810360008301526114688161142c565b905091905056fea26469706673582212205de096da849c6cb63c71081427c19858c741e75aa874ab1e78691536e3b2ffe364736f6c63430008090033",
  "immutableReferences": {},
  "source": "// SPDX-License-Identifier: GPL-3.0\n\npragma solidity >=0.7.0 <0.9.0;\n\nstruct Candidate{\n   string name;\n   uint age;\n   uint voteCount;\n}\n\nstruct Voter{\n    string name;\n    uint age;\n    uint vote;\n    bool voted;\n}\n\ncontract Election{\n\n    address public owner;\n    string public electionName;\n    mapping(address => Voter) public voters;\n    Candidate[] public candidates;\n    uint public totalVotes;\n\n    modifier ownerOnly{\n        require(msg.sender == owner,\"You dont have rights to perform this operation !\");\n        _;\n    }\n\n\n    function startElection(string memory _electionName) public {\n        owner = msg.sender;\n        electionName=_electionName;\n    }\n\n    function addCandidate(string memory _name,uint _age) ownerOnly public {\n         candidates.push(Candidate(_name,_age,0));\n    }\n\n    function getAllCandidate() public returns(Candidate[] memory){\n       return candidates;\n    }\n\n    function vote(uint _voteIndex,uint _age,string memory _name) public {\n        require(_age > 18,\"You are not eligible for vote !\");\n        require(!voters[msg.sender].voted,\"You are alredy voted !\");\n\n        voters[msg.sender].age = _age;\n        voters[msg.sender].name = _name;\n        voters[msg.sender].vote = _voteIndex;\n        voters[msg.sender].voted = true;\n        candidates[_voteIndex].voteCount += 1; \n        totalVotes +=1;\n    }\n\n\n    function selectWinner() public view returns (uint selectWinner_){\n        uint winningVoteCount = 0;\n        for (uint p = 0; p < candidates.length; p++) {\n            if (candidates[p].voteCount > winningVoteCount) {\n                winningVoteCount = candidates[p].voteCount;\n                selectWinner_ = p;\n            }\n        }\n    }\n\n    function winnerName() public view returns(string memory winnerName_){\n        winnerName_ = candidates[selectWinner()].name;\n    }\n\n}\n\n",
  "sourcePath": "/home/spandan/Desktop/web3.0/election dap/contracts/Election.sol",
  "compiler": {
    "name": "solc",
    "version": "0.8.9+commit.e5eed63a.Emscripten.clang"
  },
  "schemaVersion": "3.4.4",
  "updatedAt": "2021-12-30T18:41:43.666Z",
  "networkType": "ethereum",
  "devdoc": {
    "kind": "dev",
    "methods": {},
    "version": 1
  },
  "userdoc": {
    "kind": "user",
    "methods": {},
    "version": 1
  }
}