{
  "contractName": "Election",
  "abi": [
    {
      "inputs": [
        {
          "internalType": "uint256",
          "name": "",
          "type": "uint256"
        }
      ],
      "name": "candidates",
      "outputs": [
        {
          "internalType": "string",
          "name": "name",
          "type": "string"
        },
        {
          "internalType": "uint256",
          "name": "age",
          "type": "uint256"
        },
        {
          "internalType": "uint256",
          "name": "voteCount",
          "type": "uint256"
        }
      ],
      "stateMutability": "view",
      "type": "function",
      "constant": true
    },
    {
      "inputs": [],
      "name": "electionName",
      "outputs": [
        {
          "internalType": "string",
          "name": "",
          "type": "string"
        }
      ],
      "stateMutability": "view",
      "type": "function",
      "constant": true
    },
    {
      "inputs": [],
      "name": "owner",
      "outputs": [
        {
          "internalType": "address",
          "name": "",
          "type": "address"
        }
      ],
      "stateMutability": "view",
      "type": "function",
      "constant": true
    },
    {
      "inputs": [],
      "name": "totalVotes",
      "outputs": [
        {
          "internalType": "uint256",
          "name": "",
          "type": "uint256"
        }
      ],
      "stateMutability": "view",
      "type": "function",
      "constant": true
    },
    {
      "inputs": [
        {
          "internalType": "address",
          "name": "",
          "type": "address"
        }
      ],
      "name": "voters",
      "outputs": [
        {
          "internalType": "uint256",
          "name": "vote",
          "type": "uint256"
        },
        {
          "internalType": "bool",
          "name": "voted",
          "type": "bool"
        }
      ],
      "stateMutability": "view",
      "type": "function",
      "constant": true
    },
    {
      "inputs": [],
      "name": "winner",
      "outputs": [
        {
          "internalType": "string",
          "name": "",
          "type": "string"
        }
      ],
      "stateMutability": "view",
      "type": "function",
      "constant": true
    },
    {
      "inputs": [
        {
          "internalType": "string",
          "name": "_electionName",
          "type": "string"
        }
      ],
      "name": "startElection",
      "outputs": [],
      "stateMutability": "nonpayable",
      "type": "function"
    },
    {
      "inputs": [
        {
          "internalType": "string",
          "name": "_name",
          "type": "string"
        },
        {
          "internalType": "uint256",
          "name": "_age",
          "type": "uint256"
        }
      ],
      "name": "addCandidate",
      "outputs": [],
      "stateMutability": "nonpayable",
      "type": "function"
    },
    {
      "inputs": [],
      "name": "getAllCandidate",
      "outputs": [
        {
          "components": [
            {
              "internalType": "string",
              "name": "name",
              "type": "string"
            },
            {
              "internalType": "uint256",
              "name": "age",
              "type": "uint256"
            },
            {
              "internalType": "uint256",
              "name": "voteCount",
              "type": "uint256"
            }
          ],
          "internalType": "struct Candidate[]",
          "name": "",
          "type": "tuple[]"
        }
      ],
      "stateMutability": "nonpayable",
      "type": "function"
    },
    {
      "inputs": [
        {
          "internalType": "uint256",
          "name": "_voteIndex",
          "type": "uint256"
        }
      ],
      "name": "vote",
      "outputs": [],
      "stateMutability": "nonpayable",
      "type": "function"
    },
    {
      "inputs": [],
      "name": "selectWinner",
      "outputs": [
        {
          "internalType": "uint256",
          "name": "selectWinner_",
          "type": "uint256"
        }
      ],
      "stateMutability": "view",
      "type": "function",
      "constant": true
    },
    {
      "inputs": [],
      "name": "winnerName",
      "outputs": [
        {
          "internalType": "string",
          "name": "winnerName_",
          "type": "string"
        }
      ],
      "stateMutability": "nonpayable",
      "type": "function"
    }
  ],
  "bytecode": "0x608060405234801561001057600080fd5b506113b8806100206000396000f3fe608060405234801561001057600080fd5b50600436106100b45760003560e01c8063a3ec138d11610071578063a3ec138d1461017f578063dfbf53ae146101b0578063e23cec7b146101ce578063e2ba53f0146101ea578063efd5297c14610208578063f544bed814610226576100b4565b80630121b93f146100b95780630d15fd77146100d557806333a99e04146100f35780633477ee2e1461011157806385e8e7a7146101435780638da5cb5b14610161575b600080fd5b6100d360048036038101906100ce9190610b76565b610242565b005b6100dd6103ce565b6040516100ea9190610bb2565b60405180910390f35b6100fb6103d4565b6040516101089190610bb2565b60405180910390f35b61012b60048036038101906101269190610b76565b61045c565b60405161013a93929190610c66565b60405180910390f35b61014b61051e565b6040516101589190610ca4565b60405180910390f35b6101696105ac565b6040516101769190610d07565b60405180910390f35b61019960048036038101906101949190610d4e565b6105d0565b6040516101a7929190610d96565b60405180910390f35b6101b8610601565b6040516101c59190610ca4565b60405180910390f35b6101e860048036038101906101e39190610ef4565b61068f565b005b6101f261079b565b6040516101ff9190610ca4565b60405180910390f35b61021061089d565b60405161021d91906110bb565b60405180910390f35b610240600480360381019061023b91906110dd565b6109a2565b005b600260003373ffffffffffffffffffffffffffffffffffffffff1673ffffffffffffffffffffffffffffffffffffffff16815260200190815260200160002060010160009054906101000a900460ff16156102d2576040517f08c379a00000000000000000000000000000000000000000000000000000000081526004016102c990611172565b60405180910390fd5b80600260003373ffffffffffffffffffffffffffffffffffffffff1673ffffffffffffffffffffffffffffffffffffffff168152602001908152602001600020600001819055506001600260003373ffffffffffffffffffffffffffffffffffffffff1673ffffffffffffffffffffffffffffffffffffffff16815260200190815260200160002060010160006101000a81548160ff02191690831515021790555060016003828154811061038a57610389611192565b5b906000526020600020906003020160020160008282546103aa91906111f0565b925050819055506001600460008282546103c491906111f0565b9250508190555050565b60045481565b6000806000905060005b600380549050811015610457578160038281548110610400576103ff611192565b5b9060005260206000209060030201600201541115610444576003818154811061042c5761042b611192565b5b90600052602060002090600302016002015491508092505b808061044f90611246565b9150506103de565b505090565b6003818154811061046c57600080fd5b906000526020600020906003020160009150905080600001805461048f906112be565b80601f01602080910402602001604051908101604052809291908181526020018280546104bb906112be565b80156105085780601f106104dd57610100808354040283529160200191610508565b820191906000526020600020905b8154815290600101906020018083116104eb57829003601f168201915b5050505050908060010154908060020154905083565b6001805461052b906112be565b80601f0160208091040260200160405190810160405280929190818152602001828054610557906112be565b80156105a45780601f10610579576101008083540402835291602001916105a4565b820191906000526020600020905b81548152906001019060200180831161058757829003601f168201915b505050505081565b60008054906101000a900473ffffffffffffffffffffffffffffffffffffffff1681565b60026020528060005260406000206000915090508060000154908060010160009054906101000a900460ff16905082565b6005805461060e906112be565b80601f016020809104026020016040519081016040528092919081815260200182805461063a906112be565b80156106875780601f1061065c57610100808354040283529160200191610687565b820191906000526020600020905b81548152906001019060200180831161066a57829003601f168201915b505050505081565b60008054906101000a900473ffffffffffffffffffffffffffffffffffffffff1673ffffffffffffffffffffffffffffffffffffffff163373ffffffffffffffffffffffffffffffffffffffff161461071d576040517f08c379a000000000000000000000000000000000000000000000000000000000815260040161071490611362565b60405180910390fd5b600360405180606001604052808481526020018381526020016000815250908060018154018082558091505060019003906000526020600020906003020160009091909190915060008201518160000190805190602001906107809291906109fc565b50602082015181600101556040820151816002015550505050565b606060036107a76103d4565b815481106107b8576107b7611192565b5b906000526020600020906003020160000160059080546107d7906112be565b6107e2929190610a82565b5060036107ed6103d4565b815481106107fe576107fd611192565b5b9060005260206000209060030201600001805461081a906112be565b80601f0160208091040260200160405190810160405280929190818152602001828054610846906112be565b80156108935780601f1061086857610100808354040283529160200191610893565b820191906000526020600020905b81548152906001019060200180831161087657829003601f168201915b5050505050905090565b60606003805480602002602001604051908101604052809291908181526020016000905b8282101561099957838290600052602060002090600302016040518060600160405290816000820180546108f4906112be565b80601f0160208091040260200160405190810160405280929190818152602001828054610920906112be565b801561096d5780601f106109425761010080835404028352916020019161096d565b820191906000526020600020905b81548152906001019060200180831161095057829003601f168201915b5050505050815260200160018201548152602001600282015481525050815260200190600101906108c1565b50505050905090565b336000806101000a81548173ffffffffffffffffffffffffffffffffffffffff021916908373ffffffffffffffffffffffffffffffffffffffff16021790555080600190805190602001906109f89291906109fc565b5050565b828054610a08906112be565b90600052602060002090601f016020900481019282610a2a5760008555610a71565b82601f10610a4357805160ff1916838001178555610a71565b82800160010185558215610a71579182015b82811115610a70578251825591602001919060010190610a55565b5b509050610a7e9190610b0f565b5090565b828054610a8e906112be565b90600052602060002090601f016020900481019282610ab05760008555610afe565b82601f10610ac15780548555610afe565b82800160010185558215610afe57600052602060002091601f016020900482015b82811115610afd578254825591600101919060010190610ae2565b5b509050610b0b9190610b0f565b5090565b5b80821115610b28576000816000905550600101610b10565b5090565b6000604051905090565b600080fd5b600080fd5b6000819050919050565b610b5381610b40565b8114610b5e57600080fd5b50565b600081359050610b7081610b4a565b92915050565b600060208284031215610b8c57610b8b610b36565b5b6000610b9a84828501610b61565b91505092915050565b610bac81610b40565b82525050565b6000602082019050610bc76000830184610ba3565b92915050565b600081519050919050565b600082825260208201905092915050565b60005b83811015610c07578082015181840152602081019050610bec565b83811115610c16576000848401525b50505050565b6000601f19601f8301169050919050565b6000610c3882610bcd565b610c428185610bd8565b9350610c52818560208601610be9565b610c5b81610c1c565b840191505092915050565b60006060820190508181036000830152610c808186610c2d565b9050610c8f6020830185610ba3565b610c9c6040830184610ba3565b949350505050565b60006020820190508181036000830152610cbe8184610c2d565b905092915050565b600073ffffffffffffffffffffffffffffffffffffffff82169050919050565b6000610cf182610cc6565b9050919050565b610d0181610ce6565b82525050565b6000602082019050610d1c6000830184610cf8565b92915050565b610d2b81610ce6565b8114610d3657600080fd5b50565b600081359050610d4881610d22565b92915050565b600060208284031215610d6457610d63610b36565b5b6000610d7284828501610d39565b91505092915050565b60008115159050919050565b610d9081610d7b565b82525050565b6000604082019050610dab6000830185610ba3565b610db86020830184610d87565b9392505050565b600080fd5b600080fd5b7f4e487b7100000000000000000000000000000000000000000000000000000000600052604160045260246000fd5b610e0182610c1c565b810181811067ffffffffffffffff82111715610e2057610e1f610dc9565b5b80604052505050565b6000610e33610b2c565b9050610e3f8282610df8565b919050565b600067ffffffffffffffff821115610e5f57610e5e610dc9565b5b610e6882610c1c565b9050602081019050919050565b82818337600083830152505050565b6000610e97610e9284610e44565b610e29565b905082815260208101848484011115610eb357610eb2610dc4565b5b610ebe848285610e75565b509392505050565b600082601f830112610edb57610eda610dbf565b5b8135610eeb848260208601610e84565b91505092915050565b60008060408385031215610f0b57610f0a610b36565b5b600083013567ffffffffffffffff811115610f2957610f28610b3b565b5b610f3585828601610ec6565b9250506020610f4685828601610b61565b9150509250929050565b600081519050919050565b600082825260208201905092915050565b6000819050602082019050919050565b600082825260208201905092915050565b6000610f9882610bcd565b610fa28185610f7c565b9350610fb2818560208601610be9565b610fbb81610c1c565b840191505092915050565b610fcf81610b40565b82525050565b60006060830160008301518482036000860152610ff28282610f8d565b91505060208301516110076020860182610fc6565b50604083015161101a6040860182610fc6565b508091505092915050565b60006110318383610fd5565b905092915050565b6000602082019050919050565b600061105182610f50565b61105b8185610f5b565b93508360208202850161106d85610f6c565b8060005b858110156110a9578484038952815161108a8582611025565b945061109583611039565b925060208a01995050600181019050611071565b50829750879550505050505092915050565b600060208201905081810360008301526110d58184611046565b905092915050565b6000602082840312156110f3576110f2610b36565b5b600082013567ffffffffffffffff81111561111157611110610b3b565b5b61111d84828501610ec6565b91505092915050565b7f596f752061726520616c7265647920766f746564202100000000000000000000600082015250565b600061115c601683610bd8565b915061116782611126565b602082019050919050565b6000602082019050818103600083015261118b8161114f565b9050919050565b7f4e487b7100000000000000000000000000000000000000000000000000000000600052603260045260246000fd5b7f4e487b7100000000000000000000000000000000000000000000000000000000600052601160045260246000fd5b60006111fb82610b40565b915061120683610b40565b9250827fffffffffffffffffffffffffffffffffffffffffffffffffffffffffffffffff0382111561123b5761123a6111c1565b5b828201905092915050565b600061125182610b40565b91507fffffffffffffffffffffffffffffffffffffffffffffffffffffffffffffffff821415611284576112836111c1565b5b600182019050919050565b7f4e487b7100000000000000000000000000000000000000000000000000000000600052602260045260246000fd5b600060028204905060018216806112d657607f821691505b602082108114156112ea576112e961128f565b5b50919050565b7f596f7520646f6e7420686176652072696768747320746f20706572666f726d2060008201527f74686973206f7065726174696f6e202100000000000000000000000000000000602082015250565b600061134c603083610bd8565b9150611357826112f0565b604082019050919050565b6000602082019050818103600083015261137b8161133f565b905091905056fea2646970667358221220a4e6bc0354db542acf34f572630cd4bd32b630055f72f5a005c831cae7292f4f64736f6c63430008090033",
  "immutableReferences": {},
  "source": "// SPDX-License-Identifier: GPL-3.0\n\npragma solidity >=0.7.0 <0.9.0;\n\nstruct Candidate{\n   string name;\n   uint age;\n   uint voteCount;\n}\n\nstruct Voter{\n    uint vote;\n    bool voted;\n}\n\ncontract Election{\n\n    address public owner;\n    string public electionName;\n    mapping(address => Voter) public voters;\n    Candidate[] public candidates;\n    uint public totalVotes;\n    string public winner;\n\n    modifier ownerOnly{\n        require(msg.sender == owner,\"You dont have rights to perform this operation !\");\n        _;\n    }\n\n\n    function startElection(string memory _electionName) public {\n        owner = msg.sender;\n        electionName=_electionName;\n    }\n\n    function addCandidate(string memory _name,uint _age) ownerOnly public {\n         candidates.push(Candidate(_name,_age,0));\n    }\n\n    function getAllCandidate() public returns(Candidate[] memory){\n       return candidates;\n    }\n\n    function vote(uint _voteIndex) public {\n        require(!voters[msg.sender].voted,\"You are alredy voted !\");\n\n        voters[msg.sender].vote = _voteIndex;\n        voters[msg.sender].voted = true;\n        candidates[_voteIndex].voteCount += 1; \n        totalVotes +=1;\n    }\n\n\n    function selectWinner() public view returns (uint selectWinner_){\n        uint winningVoteCount = 0;\n        for (uint p = 0; p < candidates.length; p++) {\n            if (candidates[p].voteCount > winningVoteCount) {\n                winningVoteCount = candidates[p].voteCount;\n                selectWinner_ = p;\n            }\n        }\n    }\n\n    function winnerName() public returns(string memory winnerName_){\n        winner = candidates[selectWinner()].name;\n        winnerName_ = candidates[selectWinner()].name;\n    }\n\n}\n\n",
  "sourcePath": "/home/spandan/Desktop/web3.0/election dap/contracts/Election.sol",
  "compiler": {
    "name": "solc",
    "version": "0.8.9+commit.e5eed63a.Emscripten.clang"
  },
  "schemaVersion": "3.4.4",
  "updatedAt": "2022-01-01T15:07:19.206Z",
  "networkType": "ethereum",
  "devdoc": {
    "kind": "dev",
    "methods": {},
    "version": 1
  },
  "userdoc": {
    "kind": "user",
    "methods": {},
    "version": 1
  }
}